:020000020000FC
:020000000DC031
:04000A00639518954D
:10001A00E8C00FEF07BB0FEF08BB0FE001BB00ED15
:10002A0002BB0FE50DBF00E808B900E205BF02E018
:10003A0000BF04E003BF0CE706BF00E00FBD07E006
:10004A000EBD01E809BF002741E051E0662771E0D3
:10005A009924AA24BB24CC24DD24EE24FF247894FA
:10006A008895FECF00ED02BB713031F0723069F035
:10007A007330A1F07430D9F0092D22D0833009F4FD
:10008A00005808BB08ED02BB08950A2D19D082302A
:10009A0009F4005808BB04ED02BB08950B2D10D0DB
:1000AA00813009F4005808BB02ED02BB08950C2DFB
:1000BA0007D0803009F4005808BB01ED02BB08954F
:1000CA000030A1F00130A1F00230A1F00330A1F01C
:1000DA000430A1F00530A1F00630A1F00730A1F0FC
:1000EA000830A1F00930A1F007EF089500EC089557
:1000FA0009EF089504EA089500EB089509E90895BF
:10010A0002E9089502E8089508EF089500E80895BD
:10011A0000E90895362F1CB52DB566276DBD6CBD57
:10012A0088279924AA24BB24CC24DD24EE24FF2486
:10013A00103806E9200708E9300750F00FEFF02ED3
:10014A00E02ED02EC02EB02EA02E902E8FEF48C0BB
:10015A00103402E420070FE0300728F0105422443C
:10016A003F40F394F5CF103A06E8200701E0300744
:10017A0028F0105A26483140E394F5CF103107E2AF
:10018A00200700E0300728F0105127423040D3946E
:10019A00F5CF183E03E0200720F0185E2340C394F1
:1001AA00F8CF143600E0200720F014562040B3940C
:1001BA00F8CF1A3018F01A50A394FBCF912E0027CB
:1001CA00F01629F4E01619F4D01609F409C09A2C8D
:1001DA00AB2CBC2CCD2CDE2CEF2CFF248395EFCF3F
:1001EA00089540DF7A9509F474E04A9529F44DE7B9
:0A01FA005A9511F455E08EDF1895B8
:00000001FF
